5225Adam Shannon                        MOOVYYYYYYPPDtest trans2005262005271491273976360000188
62627397636915XXXXXXXXXX1    0000000146ae1300b1c1cac5cVeridian Credit Union te1273976368613175
5220Robert Smith                        MOOVYYYYYYPPDaccount va2005262005271491323274270000085
6212739763691XXXXXXXXXXX2    0000000008dcd5f1ce42ae2e1Adam Shannon          ac1273976360000001
