100 000000039 0000000392220819442A094101HMBRADLEY              NYCB                           
5220ABC TEST COMPANY                    1116001925CCDHAP             2208192311021406660000001
6222260710041000000000000001 0000100001113504464      Test User 01            0021406660004489
6222260710041000000000000002 0000100002562309616      Test User 02            0021406660004856
6222260710041000000000000003 0000100003233054806      Test User 03            0021406660004949
6222260710041000000000000004 0000100004233054806      Test User 04            0021406660004950
6222260710041000000000000005 0000100005233054806      Test User 05            0021406660004951
6222260710041000000000000006 0000100006233054806      Test User 06            0021406660004952
6222260710041000000000000007 0000100007233054806      Test User 07            0021406660004953
6222260710041000000000000008 0000100008233054806      Test User 08            0021406660004954
6222260710041000000000000009 0000100009233054806      Test User 09            0021406660004955
6222260710041000000000000010 0000100010233054806      Test User 10            0021406660004956
6222260710041000000000000011 0000100011233054806      Test User 11            0021406660004957
6222260710041000000000000012 0000100012233054806      Test User 12            0021406660004958
6222260710041000000000000013 0000100013233054806      Test User 13            0021406660004959
822000001302938923000000000000000000013000911116001925                         021406660000001
9000001000002000000130293892300000000000000000001300091                                       
9999999999999999999999999999999999999999999999999999999999999999999999999999999999999999999999
9999999999999999999999999999999999999999999999999999999999999999999999999999999999999999999999
9999999999999999999999999999999999999999999999999999999999999999999999999999999999999999999999

